:020000040800F2
:10000000A04A002099010008A1010008A3010008EE
:10001000A5010008A7010008A901000800000000D0
:1000200000000000000000000000000001010008C6
:10003000AD0100080000000045010008250E000881
:10004000B3010008B3010008B3010008B3010008C0
:10005000B3010008B3010008B3010008B3010008B0
:10006000B3010008B3010008B3010008B3010008A0
:10007000B3010008B3010008B3010008B301000890
:10008000B3010008B3010008B3010008B301000880
:10009000B3010008B3010008B3010008B301000870
:1000A000B3010008B3010008B3010008B301000860
:1000B000B3010008B3010008B3010008B301000850
:1000C000B3010008B3010008B3010008B301000840
:1000D000B3010008B90E0008B3010008B30100081D
:1000E000B3010008B3010008B3010008DFF80CD029
:1000F00000F04EFB00480047011D0008A04A002008
:10010000224B19680868B0E8F00F80F30988BFF344
:100110006F8F4FF0000080F311884EF00D0E704786
:100120000000000006480068006880F3088862B696
:1001300061B6BFF34F8FBFF36F8F00DF00BF00BF0B
:1001400008ED00E0EFF30980BFF36F8F0F4B1A68E3
:1001500020E9F00F106008B54FF0BF0080F3118860
:10016000BFF34F8FBFF36F8F02F0E2F94FF0000043
:1001700080F31188BDE8084019680868B0E8F00FFE
:1001800080F30988BFF36F8F704700BF180000200D
:10019000EFF3058070470000064880470648004797
:1001A000FEE7FEE7FEE7FEE7FEE7FEE7FEE7FEE727
:1001B000FEE7FEE7590E0008ED000008D2B201E0AC
:1001C00000F8012B491EFBD270470022F6E710B55C
:1001D00013460A4604461946FFF7F0FF204610BDB5
:1001E000F0B480EA0102D40F4200B2EB410F02D218
:1001F0000246084611464A0042D0C30DDDB2C1F3A3
:10020000C752AD1A202D35DAC1F3160141F40002B0
:1002100004B15242C5F1200602FA06F12A41104407
:10022000B3EBD05F23D0C4B1012DA0EBC35009DCE8
:10023000F0BC4FF0004202EAC352DBB200F500000E
:1002400000F0C0B8400000F1807000EBC350A0F196
:10025000807040EAD170490009E0490841EAC07164
:10026000A0EBC35000F50000400800EBC350F0BC09
:1002700000F09FB86142012202EB4101001BF6E74A
:10028000F0BC704781F00041AAE780F00040A7E78A
:1002900080EA010210B502F00043400022D04A007B
:1002A0001FD0010E01EB1261C0F35600C2F35602DB
:1002B00040F4000042F40002A0FB022000047F3959
:1002C000140400D0401C50EA124001D44000491EE2
:1002D000C2B20C0604EBD010401C4008802A02D0A9
:1002E00003E0002010BD20F00100002900DA00200A
:1002F000184310BD96230022114600F063B800F0A9
:10030000004230F000400AD0C10D01F56071C0F329
:10031000160042EA0151C20840071143704700200D
:100320000146704730B50B460146002020220124CB
:1003300009E021FA02F59D4205D303FA02F5491BB3
:1003400004FA02F52844151EA2F10102F1DC30BDC9
:100350002DE9F05F0546002092469B4688460646FA
:10036000814640241BE0284641464746224600F08D
:1003700030FA53465A46C01A914110D311461846D6
:10038000224600F017FA2D1A67EB01084F46224665
:100390000120002100F00EFA17EB00094E41201E4B
:1003A000A4F10104DFDC484631462A464346BDE855
:1003B000F09F0029A8BF7047401C490008BF20F0EB
:1003C0000100704710B4B0FA80FC00FA0CF050EA5B
:1003D000010404BF10BC704749B1CCF1200421FADC
:1003E00004F411FA0CF118BF012121430843A3EBD7
:1003F0000C01CB1D4FEA00614FEA102042BF0020E4
:1004000010BC704700EBC35010440029A4BF10BCBF
:100410007047401C490008BF20F0010010BC704725
:100420002DE9FE4F804681EA0300C00F0C46009084
:1004300021F0004123F00045B8EB0200A94105D2AC
:100440004046214690461C460B46024623F000409B
:10045000104347D0270DC7F30A00C3F30A51029097
:10046000401A019040286BDAC3F3130040F4801B5C
:100470000098924620B10023D2EB030A63EB0B0BEA
:1004800001985946C0F14002504600F093F90646E3
:100490000D4650465946019A00F0ABF910EB0800A2
:1004A0006141002487EA115284EAE7731A4340D07D
:1004B000009A62B3019A012A4FEA075215DC001B29
:1004C00061EB02014FF0004202EA0752CDE900421F
:1004D000001C41F5801132462B4600F0ABF903B009
:1004E000BDE8F08F40462146F9E7001B61EB0201B1
:1004F000001C41F5801300185B412018A2F500177D
:1005000047EB030140EAD570B6196D4111E06D0863
:100510004FEA360645EAC0754FEA0752001B61EB09
:100520000201001C41F5801149084FEA3000001912
:10053000514132462B4603B0BDE8F04F00F06BB995
:100540000098012240000023D0EB020263EBE0732D
:10055000009821464FEAE074B8EB000061EB04011B
:10056000E9E783F000435BE781F0004158E72DE9BC
:10057000FE4F81EA030404F0004421F0004100949E
:100580004FF0000B23F0004350EA01045ED052EA22
:1005900003045BD0C3F30A54C1F30A552C44A4F2FC
:1005A000F3340194A0FB0254C1F3130141F4801110
:1005B000C3F3130343F4801301FB024400FB034E17
:1005C000840A970A44EA815447EA8357A4FB0768E0
:1005D00002958D0A05FB07854FEA932C04FB0C540A
:1005E0002705029D4FEA065847EA1637B5EB08057E
:1005F0006EEB070C870E920E47EA811742EA8312D0
:10060000A7FB0201B6EB0B0164EB00042B0D43EAE0
:100610000C335E1844EB1C50DA465146E7FB0201EE
:10062000C5F313044FEA0B3343EA14534FEA043281
:10063000019C43EA0603A4F10C040294009CCDE95A
:1006400000B400F0F7F803B0BDE8F08F00200146D9
:10065000F9E72DE9F04D81EA030404F0004B21F0A5
:10066000004514464FF0000A23F0004150EA05020D
:1006700020D054EA01021DD0C5F30A570246C5F343
:100680001303C1F31300C1F30A5640F4801543F479
:100690008013A7EB0608101BD64608F2FD3873EB53
:1006A000050002D308F1010801E092185B41B8F19E
:1006B000000F03DA00200146BDE8F08D00204FF462
:1006C0008011064684460EE0171B73EB050705D321
:1006D000121B63EB050306434CEA010C49084FEA81
:1006E000300092185B4150EA0107EDD152EA030055
:1006F00012D082EA040083EA0501084305D0101BEA
:10070000AB4106D20122002306E000224FF0004355
:1007100002E06FF0010253101AEB06004CEB085197
:1007200010EB0A0041EB0B01BDE8F04D00F073B88F
:10073000C1F30A52C1F3130140F2FF3341F48011B7
:100740009A4202DA00200146704740F233439A424F
:10075000A2F2334202DC524200F03BB800F02AB869
:1007600030B5041E71F1000404DB4FF00044404238
:1007700064EB0101141E73F1000405DB1C464FF00D
:100780000043524263EB0403994208BF904230BDDC
:10079000064C074D06E0E06840F0010394E80700CE
:1007A00098471034AC42F6D3FFF7A4FC1829000890
:1007B00038290008202A04DB203A00FA02F1002040
:1007C00070479140C2F1200320FA03F3194390408F
:1007D0007047202A04DB203A21FA02F000217047FA
:1007E00021FA02F3D040C2F1200291400843194699
:1007F0007047202A06DBCB17203A41FA02F043EA81
:10080000E07306E041FA02F3D040C2F120029140C9
:1008100008431946704710B5141E73F1000408DA36
:10082000401C41F1000192185B411A4301D120F0B4
:10083000010010BD2DE9F04D92469B4611B1B1FA71
:1008400081F202E0B0FA80F220329046FFF7B2FF68
:1008500004460F4640EA0A0041EA0B0153465A4655
:10086000084313D0114653EA010019D0C8F14002E1
:100870005046FFF7AEFF05460E46504659464246E3
:10088000FFF798FF084305D0012004E020463946D1
:10089000BDE8F08D0020054346EAE0762C4337435F
:1008A0000A986305E40AA0EB08000022FD0A44EA66
:1008B00047540A3002D500200146E9E70105101926
:1008C0006941DDE9084500196941BDE8F04DA2E73D
:1008D00010B50121042000F06FF910200649C870FE
:1008E0002020088003208870044800F085F820212B
:1008F000024800F017F910BD120000200008014066
:100900002DE9F04104466078FFF7F4FC07460649FC
:10091000FFF7BEFC05462078FFF7ECFC06462946AB
:10092000FFF75EFCBDE8F081CDCCCC3D2DE9F04178
:100930000446E078FFF7DEFC07460649FFF7A8FC0F
:100940000546A078FFF7D6FC06462946FFF748FC87
:10095000BDE8F081CDCCCC3D70B5044600F0A6F9E1
:1009600001F07CF9012801D0002070BD002503E0D2
:1009700001F04EF960556D1C052DF9DB207861788A
:100980000844A1780844E17808442179884201D1DB
:100990000120EAE70020E8E721B1026842F0010205
:1009A000026004E002684FF6FE731A40026070476E
:1009B0000146486880B2704710B50022026847F6C9
:1009C000F0739A430C6A8B6823430C6923434C6988
:1009D00023438C692343CC6923434C6A23438C6AA9
:1009E00023431A430260CB6843600B6883604B6803
:1009F000C36010BD416070472DE9F04102460025FB
:100A00000026002000230024002791F803C00CF0EA
:100A10000F0591F803C00CF0100CBCF1000F03D0CF
:100A200091F802C04CEA050591F800C0BCF1000F36
:100A300031D0146800202BE04FF0010C0CFA00F3C9
:100A4000B1F800C00CEA03069E4220D183004FF0AB
:100A50000F0C0CFA03F7BC4305FA03FC4CEA040440
:100A600091F803C0BCF1280F06D14FF0010C0CFA2D
:100A700000FCC2F814C00AE091F803C0BCF1480FB2
:100A800005D14FF0010C0CFA00FCC2F810C0401C5C
:100A90000828D1D31460B1F800C0BCF1FF0F34DDD9
:100AA000546800202EE000F1080C4FF0010808FA0D
:100AB0000CF3B1F800C00CEA03069E4221D183007A
:100AC0004FF00F0C0CFA03F7BC4305FA03FC4CEA99
:100AD000040491F803C0BCF1280F05D100F1080C03
:100AE00008FA0CF8C2F8148091F803C0BCF1480F62
:100AF00007D100F1080C4FF0010808FA0CF8C2F811
:100B00001080401C0828CED35460BDE8F081024616
:100B1000002093680B400BB1012000E000207047DB
:100B2000416170470161704770B5002100230F22B9
:100B3000C47804B3154C246804F4E064C4F5E0649C
:100B4000210AC1F10403CA40447804FA03F184780D
:100B50001440214309010E4C0678A155047804F095
:100B60001F050124AC4005786D11AD0005F1E025AD
:100B7000C5F8004109E0047804F01F050124AC40E9
:100B8000044D0678761145F8264070BD0CED00E066
:100B900000E400E080E100E029B1064A5269024326
:100BA000044B5A6104E0034A52698243014B5A6183
:100BB000704700000010024029B1064A92690243C2
:100BC000044B9A6104E0034A92698243014B9A61A3
:100BD000704700000010024030B5002100220024C0
:100BE00000232D4D6D6805F00C0121B1042905D0BD
:100BF000082923D105E0294D056022E0274D056035
:100C00001FE0254D6D6805F47012234D6D6805F4E5
:100C10008034022505EB92421CB9214D55430560F5
:100C20000BE01D4D6D6805F400351DB11C4D55439D
:100C3000056002E0194D5543056002E0174D05605F
:100C400000BF00BF144D6D6805F0F0010909154D96
:100C50006B5C0568DD4045600F4D6D6805F4E06133
:100C6000090A104D6B5C4568DD4085600A4D6D6872
:100C700005F46051C90A0B4D6B5C4568DD40C560E9
:100C8000054D6D6805F44041890B074D6B5CC568E7
:100C9000B5FBF3F5056130BD0010024000127A008B
:100CA00000093D00780000208800002010B500F009
:100CB000ADF820210648FFF733FF142000F066FF4F
:100CC00020210348FFF72EFF282000F06EFF10BD03
:100CD0000008014010B5044600BF8021044800F020
:100CE000CBF90028F9D02146014800F08DFA10BD5B
:100CF0000038014010B5044603E014F8010BFFF77B
:100D0000E9FF20780028F8D110BD000010B5482078
:100D10000249C8700248FFF76FFE10BD12000020A4
:100D20000008014010B500F001F810BD0CB500201E
:100D3000019000903348006840F4803031490860E9
:100D400000BF3048006800F4003000900198401C5B
:100D50000190009818B90198B0F5A06FF1D1294819
:100D6000006800F4003010B10120009001E0002084
:100D700000900098012843D12348006840F01000FB
:100D8000214908600846006820F003000860084612
:100D9000006840F0020008601A484068194948603D
:100DA0000846406848600846406840F480604860F3
:100DB0000846406820F47C1048600846406840F4CB
:100DC000E81048600846006840F08070086000BF86
:100DD0000C48006800F000700028F9D0094840680D
:100DE00020F00300074948600846406840F00200D0
:100DF000486000BF0348406800F00C000828F9D1A3
:100E00000CBD0000001002400020024010B5102070
:100E10000249C8700248FFF7EFFD10BD1200002024
:100E20000008014010B500BFBF2080F31188BFF358
:100E30004F8FBFF36F8F00BF01F0F8FB18B14FF079
:100E400080500449086000BF002080F3118800BF73
:100E500010BD000004ED00E010B51348006840F03C
:100E600001001149086008464068104908400E49D1
:100E70004860084600680E4908400B49086008466B
:100E8000006820F4802008600846406820F4FE00D6
:100E900048604FF41F008860FFF744FF4FF0006088
:100EA0000449086010BD0000001002400000FFF877
:100EB000FFFFF6FE08ED00E010B540F224411348B4
:100EC00000F0E7F8012820D11148FFF771FDC0F1CB
:100ED000C800104900220A5401200F49087040F24E
:100EE00024410A4800F07AF808480488001D048864
:100EF00000210748FFF750FDC8210548FFF77AFD9C
:100F000001210348FFF748FD00BF10BD0038014034
:100F1000580002400C0100201000002000B587B0EE
:100F200001218803FFF748FE01210420FFF744FE5A
:100F300018208DF81B004FF40070ADF81800032046
:100F40008DF81A0006A92348FFF756FD04208DF8F6
:100F50001B000002ADF8180006A91E48FFF74CFD63
:100F60004FF4165002900020ADF814000C20ADF89C
:100F700012000020ADF81000ADF80E00ADF80C0026
:100F800002A9154800F0D4F800F04CF801224021E5
:100F9000114800F03EF8012240F225510E4800F0C1
:100FA000A2F8012240F224410B4800F09CF82520D1
:100FB0008DF8040001208DF807008DF805008DF8EC
:100FC000060001A8FFF7B0FD0121034800F015F865
:100FD00007B000BD000801400038014010B50022F4
:100FE000002340F66A14A14200D100BF0A12012476
:100FF0009440A3B2DC43048010BD21B1828942F445
:101000000052828104E082894DF6FF731A4082818A
:1010100070471AB1838A0B43838202E0838A8B4331
:101020008382704700B58BB001210846FFF7B4FDFD
:101030000E4800900020069004900D48019000207A
:10104000079080200590C8200390002002900A900D
:1010500008904FF40050099069460648FFF7ACFC31
:1010600001210448FFF798FC0BB000BD0438014093
:101070000C0100205800024002460020B1F5007F1C
:1010800000D100BF13880B400BB1012000E000200D
:10109000704770B50246002400230025002040F66A
:1010A0006A16B14200D100BFC1F3421501F01F031F
:1010B000012606FA03F3012D02D19689334006E09A
:1010C000022D02D1168A334001E0968A33400C1279
:1010D000012606FA04F41688344013B10CB101203D
:1010E00000E0002070BDF0B5034600240026002576
:1010F000002040F66A17B94200D100BF1846C1F37C
:10110000421401F01F06012707FA06F5012C01D150
:101110000C3004E0022C01D1103000E014301AB180
:1011200007682F43076002E00768AF430760F0BD20
:101130002DE9F04786B005460E460024A24600BFC2
:10114000A1460027B08900B100BF2F462C8A4CF67B
:10115000FF700440F08804432C82AC894EF6F310F3
:101160000440B08831890843718908430443AC8145
:10117000AC8A4FF6FF400440B0890443AC8201A81A
:10118000FFF72AFD1F48874202D1DDF810A001E0D9
:10119000DDF80CA0A88900F4004040B10AEBCA00B9
:1011A00000EB0A1031684900B0FBF1F807E00AEBE8
:1011B000CA0000EB0A1031688900B0FBF1F8642026
:1011C000B8FBF0F004012009642101FB1089A88913
:1011D00000F4004040B1322000EBC900B0FBF1F058
:1011E00000F00700044308E0322000EB09106421FE
:1011F000B0FBF1F000F00F0004432C8106B0BDE815
:10120000F087000000380140C1F308028280704777
:101210000FB41CB50246002007AC00290BD0491EB4
:10122000CDE90021054B6A462146069800F0DAF820
:10123000009A002111701CBC5DF814FB131B000800
:1012400002E008C8121F08C1002AFAD1704770478F
:10125000002001E001C1121F002AFBD170470000ED
:101260002DE9FF5F82B00021DDE90430020DDDF8D9
:1012700040B0034318D044F61050A2F2FF3242436C
:101280001514119801281FD0A5EB0B00401C5FEA34
:10129000000A4FF000064E4FDFF83891B046504636
:1012A00015D5CAF1000413E0119801244AA30128BE
:1012B00001D16FEA0B010298119AC0E90031C0E92F
:1012C000024206B0BDE8F09FCBF10000DFE7044624
:1012D0000021404A491842EB0450CDE9001012E0C9
:1012E000E00707D032463B4640464946FFF73FF904
:1012F0008046894632463B4610461946FFF737F985
:1013000006460F466410002CEAD1DDE90401DDE950
:101310000023BAF1000F06DAFFF729F942464B46DF
:10132000FFF725F905E0FFF794F942464B46FFF732
:1013300090F904460E460022284BFFF711FA03D815
:101340004FF0FF30014607E00022254B2046314692
:10135000FFF766F8FFF7ECF9102409E0002C0ADB30
:101360000A220023FEF7F4FF039B30321A55641E55
:1013700050EA0102F2D1641C039AC4F1110314442F
:10138000119A012A03D0012208430DD10AE0084333
:1013900004D000204FF0110B119072E7A3EB0B0566
:1013A0006D1E0DE05B4504DD4FF0000205F1010507
:1013B00004E003DA4FF00002A5F10105002AECD0A9
:1013C00002981199C0E90231C0E9004579E70000AF
:1013D000000014400000F03F300000000000F04327
:1013E0000000E03F2DE9FF4F95B09B468946064639
:1013F00000250FE2252877D100242746F84A01214D
:10140000059400E0044316F8013F203B01FA03F085
:101410001042F7D130782A2811D06FF02F0330789E
:10142000A0F13002092A16D8059A44F0020402EB12
:10143000820203EB42021044761C0590EFE759F854
:10144000042B0592002A03DA504244F4005405901C
:1014500044F00204761C30782E2816D116F8010FBD
:1014600044F004042A280DD06FF02F023078A0F148
:101470003003092B09D807EB870302EB4303C71896
:10148000761CF3E759F8047B761C30786C280FD073
:1014900006DC4C2817D068280DD06A2814D104E047
:1014A000742810D07A280FD10DE044F400140AE01B
:1014B00044F4801401E044F440147278824202D172
:1014C00004F58014761C761C307866280BD013DC6B
:1014D000582877D009DC002875D04528F6D0462852
:1014E000F4D047281AD19DE118E0632835D064284C
:1014F00079D0652812D195E1702873D008DC67286F
:10150000F1D069286FD06E280DD06F2806D1B5E0D4
:1015100073282CD0752875D0782874D05A4617991E
:1015200090476D1C75E1C4F30250022809D00328CE
:101530000DD0D9F8001004280DD00D6009F1040970
:1015400067E1D9F80010EA17C1E90052F6E7D9F8C7
:1015500000100D80F2E70D70F0E719F8041B8DF80C
:10156000001000208DF80100EA46012003E059F840
:1015700004AB4FF0FF3061074FF0000102D40DE0E3
:1015800008F101018846B9420FDA8045F8DB1AF804
:1015900008100029F4D108E008F1010188468142D1
:1015A000FADB1AF808100029F6D105985B46A0EB83
:1015B000080721463846179A00F094FA284400EBB1
:1015C000080507E04DE029E10DE01AF8010B5A4645
:1015D00017999047B8F10108F7D25B462146384683
:1015E000179A13E142E00A220092C4F302524FF02C
:1015F000000A022A08D059F804CB032A4FEAEC71FA
:101600000AD00DE029E02AE009F1070121F00702E4
:10161000F2E802C1914609E00FFA8CFC4FEAEC7146
:10162000042A03D14FFA8CFC4FEAEC71002907DA47
:101630000A460021DCF1000C61EB02012D2202E0E0
:10164000220504D52B228DF80420012203E0E207B5
:1016500001D02022F7E7904659E00A2102E010224B
:101660000DE010214FF0000A00910BE010224FF026
:10167000000A44F004040827009203E008224FF017
:10168000000A0092C4F30252022A05D059F804CB92
:101690000021032A08D009E009F1070121F007021F
:1016A000F2E802C1914605E01FFA8CFC042A01D140
:1016B0000CF0FF0C4FF00008220728D5702806D048
:1016C000009B83F0100353EA0A0305D00EE040228A
:1016D0008DF80420012208E05CEA010206D03022E5
:1016E0008DF804208DF8050002229046009B83F0BF
:1016F000080353EA0A030AD15CEA010201D1620736
:1017000005D530228DF804204FF001087F1E58289F
:1017100004D034A003900EA802900DE036A0F9E7A3
:1017200053466046009AFEF713FE84460398825C97
:101730000298401E029002705CEA0100F0D102980B
:1017400006A9081A00F1200A600702D524F48034A3
:1017500000E00127574502DDA7EB0A0000E000206A
:1017600000EB0A01009005984144401A0590E003FF
:1017700006D45B462146179A059800F0B3F9054454
:10178000002706E001A85A46C05D179990476D1CD6
:101790007F1C4745F6DBE0030CD55B462146179AD4
:1017A000059800F09FF9054404E030205A46179947
:1017B00090476D1C0099481E00900029F5DC08E058
:1017C000029802995A460078491C0291179990474D
:1017D0006D1CBAF10001AAF1010AF1DC65E100001B
:1017E00009280100303132333435363738396162F7
:1017F00063646566000000003031323334353637BB
:1018000038394142434445460000000000F058F991
:101810000544761C307800287FF4ECAD19B02846DA
:10182000BDE8F08F620700D4062709F1070222F015
:10183000070CFCE80223E14603F000485FEA080CCD
:1018400002D00FF2702C0DE05FEA045C02D50FF2BB
:10185000682C07E05FEAC47C02D00FF2602C01E044
:10186000AFF2700C4FF0FF3823F00043CDF850C0BA
:1018700065280CD006DC452809D046281DD047280D
:101880003DD13DE0662818D067287ED138E00021A0
:10189000112F01DB112000E0781CCDE9000106A921
:1018A0000EA8FFF7DDFCDDE90F010E9A0391002180
:1018B000009207F1010A04914DE04FF000400097BB
:1018C000CDE9011006A90EA8FFF7CAFCDDE90F0259
:1018D00003920E9B11990022DDF80CA00093049254
:1018E00011B9791C00EB010AB7EB0A0004D4C0F16E
:1018F000FF3007F1010A0490AAEB0700019044E0D1
:10190000012F00DA01270021112F01DD112000E055
:101910003846CDE9000106A90EA8FFF7A1FCDDE9D4
:101920000F010E9A0391002104910092BA462107FB
:101930000CD40399514500DA8A46BAF1010F05DD4E
:10194000009AAAF10101515C302908D0B84202DAAC
:1019500010F1040F06DA0121CDE9011015E0AAF11A
:101960000101E9E7002805DC049901440491AAEB90
:10197000000102E0411C514500DD8A460499401AED
:10198000401C01904FF000400290200704D40198C1
:10199000504501DBCDF8048000208DF84F000298FF
:1019A0000DF14F07B0F1004F25D02B200E9002987B
:1019B0004FF0020800280CDA404202902D200E90D1
:1019C00007E00A210298FEF7ADFC3031029007F8DB
:1019D000011DB8F10001A8F10108F2DC029800280D
:1019E000EFD1791E0E980870307800F0200040F09A
:1019F000450007F8020D12A8C01B00F10708149853
:101A0000007800B1012000EB0A01019801EBE071C0
:101A100005984144401A401E0590E00306D45B46F9
:101A20002146179A059800F05DF80544149800784F
:101A300018B15A46179990476D1CE00324D55B46B0
:101A40002146179A059800F04DF805441CE00498CB
:101A5000002807DBDDE90301884203DD0098405CD4
:101A6000179901E0179930205A469047049805F1DC
:101A70000105401C04900198401E019004D12E20C5
:101A80005A46179990476D1CBAF10001AAF1010A54
:101A9000DDDC05E017F8010B5A46179990476D1CDD
:101AA000B8F10001A8F10108F4DC5B462146179A61
:101AB0000598ABE62D0000002B0000002000000080
:101AC0002DE9F041044600251E461746880404D43B
:101AD00005E039462020B0476D1C641EF9D5284624
:101AE000BDE8F0812DE9F041044600251E469046F0
:101AF000C80301D5302700E02027880404D505E07D
:101B000041463846B0476D1C641EF9D52846BDE8ED
:101B1000F0814A68002A06D00A68531C0B601070D6
:101B20004868401E486070471CB5044600F0EAFB58
:101B30000C48022100238022CDE900100AA10D48A3
:101B400000F040FD0C48012100230A02CDE90010FD
:101B50000AA10D4800F036FD002000F041FC00F025
:101B6000E3FB1CBD000000204448545F5461736BCC
:101B700000000000DD1B0008040000204A534F4E07
:101B80005F5461736B000000951C000800B50346AC
:101B900003B900BD03E04FF47A7000F006F8181E98
:101BA000A3F10103F7D100BFF3E700EBC001C900C7
:101BB000491E4FF0E0225161002191610521116120
:101BC00000BF4FF0E021096901F480310029F8D00D
:101BD00000214FF0E0221161704700001CB512E0B7
:101BE0006846FEF7B9FE012809D16846FEF79EFE59
:101BF000054908606846FEF783FE044908604FF413
:101C0000FA6000F0D3FBEBE7080000200C00002096
:101C100070B5002500241AE000BF20210E48FEF711
:101C200076FF0128F9D000BF20210B48FEF76FFF97
:101C30000028F9D02320FFF7B8FF20210648FEF73F
:101C400066FF012802D1802020410543641C082C36
:101C5000E2DB284670BD00000008014010B5FFF728
:101C600055F820210A48FEF752FF78B900BF20211D
:101C70000748FEF74CFF0028F9D000BF2021044898
:101C8000FEF745FF0128F9D0012010BD0020FCE738
:101C9000000801401FB517E00C480068FEF72FFB55
:101CA00004460D460A480068FEF729FB09A28DE8A4
:101CB000330080211148FFF7ABFA1048FFF71AF8FC
:101CC0004FF47A7000F072FBE6E700000C00002091
:101CD000080000207B2274656D70657261747572F6
:101CE00065223A252E31662C2268756D6964697407
:101CF00079223A252E31667D0D0A00008C000020E5
:101D00001CB5FEF7E5FDFFF709F9002001210346A8
:101D10008022CDE9001004A1074800F053FC00F038
:101D2000C9FB00BFFEE700004372656174655F5444
:101D300061736B7300000000291B00082DE9F0415E
:101D400005460E462648076826480068001D00F034
:101D50008FFA50B92348006890F82C100120884071
:101D600021490968814320480160681CD8B9D6B16F
:101D70001E4948681B49096888601A4982680968D1
:101D8000CA6018490968091D8268516015490968C7
:101D9000091D8160154A134909684A61114609689D
:101DA000491C11601AE07C190E4800684460BC426E
:101DB00007D20C480168091D0D48006800F07CFA44
:101DC0000CE008480168091D0A48006800F074FA30
:101DD00009480068844201D207480460BDE8F081E8
:101DE0002C00002018000020300000208802002075
:101DF000200000201C0000204800002010B50446F0
:101E000000F080FA2F480068401C2E4908602E48D8
:101E1000006840B92C4804600846006801280DD1CC
:101E200000F016F90AE02948006838B92648006829
:101E3000C06AE16A884201D82348046024480068E7
:101E4000401C2349086094F82C1001208840214947
:101E5000096808431F490860E16A01EB81011E4AD5
:101E600002EB81014868A0608268E260211D8268FF
:101E700051608160E16A01EB8101174A02EB810246
:101E80006261E16A01EB8101134A52F82110491C99
:101E9000E26A02EB8202104B43F8221000F044FA8F
:101EA0000A48006868B108480068C06AE16A884268
:101EB00007D24FF0805009490860BFF34F8FBFF33E
:101EC0006F8F10BD28000020180000203400002073
:101ED0004400002030000020D401002004ED00E088
:101EE00010B516E000F00EFA0C48C068C468201D5A
:101EF00000F0BEF90A480068401E09490860094818
:101F00000068401E0749086000F00EFA204600F005
:101F10000BF8044800680028E4D110BD74020020CA
:101F2000280000202400002010B50446206B00F09B
:101F30000BFA204600F008FA10BD000030B54FF44F
:101F40008843154800F007042CB1C01D20F007009D
:101F5000114C041B1B1B0246104C226000240F4D29
:101F60006C60D018083820F007000D4C2060002469
:101F70000B4D2D686C600A4D2D682C601146441A7B
:101F80004C60074C24680C60064D4C682C60064D74
:101F90004C682C6030BD00009C02002058000020DE
:101FA00060000020680000206400002000BFFFF7F0
:101FB00097FF064800680128F9D94FF0805004497E
:101FC0000860BFF34F8FBFF36F8FF0E7D40100209D
:101FD00004ED00E02DE9FF5F80460E469146DDE905
:101FE0000E7A109CA9F10100216B01EB800B2BF004
:101FF000070B7EB1002507E0715D04F13400415507
:10200000705D00B902E06D1C102DF5D300BF0021FA
:1020100043200155052F00D30427E762201D00F05F
:1020200048F904F1180000F044F92461C7F10500F3
:10203000A061646241465846039A00F007F92060A7
:10204000BAF1000F01D0CAF80040BDE8FF9F0000C0
:1020500010B5002407E004EB84010F4A02EB810075
:1020600000F01AF9641C052CF5D30C4800F014F9A3
:102070000B4800F011F90B4800F00EF90A4800F087
:102080000BF90A4800F008F90448094908600448B7
:102090000849086010BD0000D4010020380200206B
:1020A0004C02002060020020740200208802002000
:1020B0001C0000202000002010B50146164800E05A
:1020C000006803688B42FBD30246436813448B428B
:1020D00004D143684C682344436001460A464B6878
:1020E00013440468A34211D10C4C03682468A34232
:1020F00008D04B680468646823444B6003681B681D
:102100000B6005E0054B1B680B6001E003680B608A
:10211000884200D0016010BD5800002060000020FF
:1021200009480068006808B9012000E0002020B1DB
:102130004FF0FF300549086005E003480068C068BB
:1021400000680249086070471C0000204800002019
:1021500000BFBF2080F31188BFF34F8FBFF36F8F95
:1021600000BF00BFFEE700002DE9F04705464FF035
:10217000000900F0D5F93048006808B9FFF7DEFE25
:1021800075B105F00700C0F11008C8F1FF30A84292
:1021900001D2012000E0002008B9454400E00025FC
:1021A000012000EBE570002841D0002D3FD02348EE
:1021B000006885423BD8224E3046046801E026463E
:1021C00024686068A84202D220680028F7D11A4823
:1021D000006884422BD0306800F108092068306024
:1021E0006068401B102807D967196068401B786039
:1021F00065603846FFF760FF104960680968081A93
:102200000E490860084600680E490968884203D2F2
:102210000A4800680B490860606840F00040606050
:102220000020206008480068401C0749086000F052
:10223000C5FA4846BDE8F087600000206400002031
:1022400058000020680000206C000020001F4FF0A4
:1022500080730360001F21F001030360001F034B24
:1022600003601438026020387047000051210008D4
:1022700001460A69D1E901309860D1E9010358604B
:102280005068884201D18868506000200861106859
:10229000401E10601068704700F1080141604FF067
:1022A000FF31816000F10801C1600161002101601E
:1022B000704700210161704710B502460B685C1C35
:1022C0000CB9106907E002F1080000E040684468BA
:1022D00024689C42FAD944684C604C68A1608860CC
:1022E00041600A611468641C146010BD42684A6051
:1022F00093688B60936859609160086103685B1C08
:102300000360704700BFBF2080F31188BFF34F8F79
:10231000BFF36F8F00BF03480068401C014908608D
:10232000704700007400002006480068401E054900
:1023300008600846006820B9002080F3118800BFBB
:1023400000BF70477400002070B506463546E6B100
:10235000083D2C466068C00FB8B12068A8B9606815
:1023600020F00040606000F0DBF808496068096810
:102370000844064908602046FFF79EFE04480068AE
:10238000401C0349086000F019FA70BD6400002089
:102390007000002000204FF0E021086188610248B1
:1023A00048610720086170473F19010070B5044675
:1023B000002544B100F0B4F800212046FFF7BEFC30
:1023C00000F0FCF905463DB94FF080500349086024
:1023D000BFF34F8FBFF36F8F70BD000004ED00E0BF
:1023E00070B50546FFF78EFF15B92948006800E073
:1023F00028460446201DFFF73BFF78B9E06A00EB52
:102400008000244951F8200040B994F82C10012094
:1024100088402149096881431F480160A06A18B1BA
:1024200004F11800FFF724FF1C480068401C1B49FA
:10243000086017480068844209D1211D1848FFF739
:1024400055FF18480068401C1649086006E0164809
:102450000068401E14490860FFF762FEFFF764FF42
:102460000B480068844202D02046FFF75DFD0F480C
:10247000006858B106480068844207D14FF0805088
:102480000B490860BFF34F8FBFF36F8F70BD000023
:1024900018000020D401002030000020440000205B
:1024A00074020020240000202800002034000020B6
:1024B00004ED00E01CB5124800210B468022CDE956
:1024C000001010A1114800F07DF80446012C14D131
:1024D00000BFBF2080F31188BFF34F8FBFF36F8F12
:1024E00000BF4FF0FF300A49086001200949086029
:1024F00000200949086000F04BF8084800681CBD3E
:102500004C00002049444C4500000000AD1F00086D
:1025100048000020340000202C0000205000002043
:1025200002480068401C01490860704754000020C0
:102530001248006818B10120114908601DE0002010
:102540000F4908600F480068B0FA80F0C0F11F0121
:1025500001EB81020C4B03EB82004268526842603F
:1025600000F108024368934202D142685268426017
:102570004268D268054B1A6000BF704754000020C3
:102580003C00002030000020D40100201800002072
:1025900010B50A48006840F47F0008490860084602
:1025A000006840F07F400860FFF7F4FE0020044917
:1025B0000860FDF7B7FD002010BD000020ED00E031
:1025C000740000202DE9FF4F85B0804689461746EC
:1025D000DDE912ABB800FFF7C7FD064676B14C2027
:1025E000FFF7C2FD04462CB14C212046FDF7EDFD5E
:1025F000266304E03046FFF7A7FE00E000247CB12C
:102600000020CDE900ABCDE902403A4649464046BC
:10261000089BFFF7DFFC2046FFF7F0FB012501E0F8
:102620004FF0FF35284609B0BDE8F08F2DE9F041A5
:1026300000275748006800287ED156480068451C8E
:10264000544805608DB95448D0F80080534800685C
:10265000514908605148C0F8008051480068401C4A
:102660004F490860FFF75CFD00BF4E480068854297
:1026700076D300BF48480068006808B9012000E030
:10268000002020B14FF0FF304649086067E0424823
:102690000068C068C4686668B54202D241480660F6
:1026A0005DE06069D4E902128A60D4E902214A60DF
:1026B000211D42688A4201D1E168416000226261C5
:1026C0000168491E0160A06A98B1A06AD4E90712A6
:1026D0008A60D4E907214A6004F1180142688A42FD
:1026E00001D1216A41600022A2620168491E016095
:1026F00000BF94F82C10012088402B49096808433A
:1027000029490860E16A01EB8101284A02EB810155
:102710004868A0608268E260211D82685160816023
:10272000E16A01EB8101214A02EB81026261E16A07
:1027300001EB81011D4A00E022E052F82110491C02
:10274000E26A02EB8202194B43F822101849E06A50
:102750000968C96A88428DD901278BE700E000BF6C
:1027600013480068C06A00EB8000104951F820004F
:10277000012800D901270F48006800B1012704E0B3
:102780000D480068401C0C4908603846BDE8F081DF
:10279000540000202C0000201C00002020000020FD
:1027A000400000204800002030000020D40100201C
:1027B000180000203C0000203800002070B50024E4
:1027C0000026FFF79FFD4B480068401E49490860FE
:1027D0000846006800287DD147480068002879D065
:1027E0005BE04648C068C468A06AD4E907128A6002
:1027F000D4E907214A6004F1180142688A4201D1F4
:10280000216A41600022A2620168491E016060697C
:10281000D4E902128A60D4E902214A60211D42688B
:102820008A4201D1E1684160002262610168491E6B
:10283000016094F82C100120884031490968084350
:102840002F490860E16A01EB81012E4A02EB810108
:102850004868A0608268E260211D826851608160E2
:10286000E16A01EB8101274A02EB81026261E16AC0
:1028700001EB8101234A52F82110491CE26A02EB64
:102880008202204B43F822101F49E06A0968C96A96
:10289000884202D301201D4908601848006808B921
:1028A000012000E0002000289BD00CB1FFF738FC8D
:1028B0001748056865B100BFFFF7B8FE10B10120E9
:1028C000124908606D1E002DF6D1002010490860E5
:1028D0000E4800E009E0006838B1012630070D49D4
:1028E0000860BFF34F8FBFF36F8FFFF71DFD3046BA
:1028F00070BD00005400002028000020600200206D
:1029000030000020D4010020180000203C000020EE
:102910003800002004ED00E0382900080000002005
:102920008C00000040120008C42900088C00002020
:10293000144A0000501200080000000000000000CF
:102940000000000000000000000000000000000087
:102950000000000000000000000000000000000077
:102960000000000000000000000000000000000067
:102970000000000000000000000000000000000057
:102980000000000000000000040000000000000043
:102990000000000000000000000000000000000037
:1029A000000000000000000000000000AAAAAAAA7F
:1029B00000000000010203040102030406070809E5
:0429C00002040608FF
:04000005080000ED02
:00000001FF
