:020000040800F2
:10000000304C002099010008A1010008A30100085C
:10001000A5010008A7010008A901000800000000D0
:1000200000000000000000000000000001010008C6
:10003000AD0100080000000045010008151500088A
:10004000B3010008B3010008B3010008B3010008C0
:10005000B3010008B3010008B3010008B3010008B0
:10006000B3010008B3010008B3010008B3010008A0
:10007000B3010008B3010008B3010008B301000890
:10008000B3010008B3010008B3010008B301000880
:10009000B3010008B3010008B3010008B301000870
:1000A000B3010008B3010008B3010008B301000860
:1000B000B3010008B3010008B3010008B301000850
:1000C000B3010008B3010008B3010008B301000840
:1000D000B301000835170008B3010008B301000898
:1000E000B3010008B3010008B3010008DFF80CD029
:1000F00000F0CAFB00480047C1290008304C00202E
:10010000224B19680868B0E8F00F80F30988BFF344
:100110006F8F4FF0000080F311884EF00D0E704786
:100120000000000006480068006880F3088862B696
:1001300061B6BFF34F8FBFF36F8F00DF00BF00BF0B
:1001400008ED00E0EFF30980BFF36F8F0F4B1A68E3
:1001500020E9F00F106008B54FF0BF0080F3118860
:10016000BFF34F8FBFF36F8F03F094FA4FF000008F
:1001700080F31188BDE8084019680868B0E8F00FFE
:1001800080F30988BFF36F8F704700BF48000020DD
:10019000EFF3058070470000064880470648004797
:1001A000FEE7FEE7FEE7FEE7FEE7FEE7FEE7FEE727
:1001B000FEE7FEE749150008ED00000840EA0103EC
:1001C0009B0703D009E008C9121F08C0042AFAD20D
:1001D00003E011F8013B00F8013B521EF9D27047D1
:1001E000D2B201E000F8012B491EFBD27047002279
:1001F000F6E710B513460A4604461946FFF7F0FF26
:10020000204610BD30B505462A460B4612F8010BB4
:1002100013F8014B08B1A042F8D01CB1002802D05D
:100220006D1CF1E7284630BD10B5044604E00B789C
:1002300000F8013B03B1491C521EF8D2204610BD04
:10024000421C10F8011B0029FBD1801A704770B5C1
:10025000064601F09DFC046805460A22002130464E
:1002600000F0EBF82C6070BDF0B480EA0102D40F0E
:100270004200B2EB410F02D20246084611464A0044
:1002800042D0C30DDDB2C1F3C752AD1A202D35DA0D
:10029000C1F3160141F4000204B15242C5F1200637
:1002A00002FA06F12A411044B3EBD05F23D0C4B167
:1002B000012DA0EBC35009DCF0BC4FF0004202EA74
:1002C000C352DBB200F5000000F0F8B8400000F1C6
:1002D000807000EBC350A0F1807040EAD1704900FB
:1002E00009E0490841EAC071A0EBC35000F50000E5
:1002F000400800EBC350F0BC00F0D7B861420122C7
:1003000002EB4101001BF6E7F0BC704781F00041B1
:10031000AAE780F00040A7E780EA010210B502F0EA
:100320000043400022D04A001FD0010E01EB1261B1
:10033000C0F35600C2F3560240F4000042F400023B
:10034000A0FB022000047F39140400D0401C50EAB6
:10035000124001D44000491EC2B20C0604EBD0107A
:10036000401C4008802A02D003E0002010BD20F08D
:100370000100002900DA0020184310BD9623002256
:10038000114600F09BB800F0004230F000400AD067
:10039000C10D01F56071C0F3160042EA0151C208B7
:1003A00040071143704700200146704730B50B46A7
:1003B000014600202022012409E021FA02F59D4295
:1003C00005D303FA02F5491B04FA02F52844151E69
:1003D000A2F10102F1DC30BD2DE9F05F05460020FD
:1003E00092469B4688460646814640241BE02846A6
:1003F00041464746224600F068FA53465A46C01A1C
:10040000914110D311461846224600F04FFA2D1A9A
:1004100067EB01084F4622460120002100F046FA12
:1004200017EB00094E41201EA4F10104DFDC484611
:1004300031462A464346BDE8F09F2DE9F0479146F4
:100440000F4680460446002614F8015B2DB100F0EB
:100450005FFA0068405DC007F6D12B2D02D02D2D2C
:1004600018D0641E4A463946204600F055FA27B196
:100470003968A14201D1C7F8008071054FF002042C
:100480000BD54042002803DD01F082FB0460A00789
:10049000BDE8F08746F48066E4E70028F8DA01F06A
:1004A00077FB04606FF00040F2E70029A8BF7047B7
:1004B000401C490008BF20F00100704710B4B0FA9A
:1004C00080FC00FA0CF050EA010404BF10BC704735
:1004D00049B1CCF1200421FA04F411FA0CF118BF4F
:1004E000012121430843A3EB0C01CB1D4FEA00611E
:1004F0004FEA102042BF002010BC704700EBC350F1
:1005000010440029A4BF10BC7047401C490008BF1C
:1005100020F0010010BC70472DE9FE4F804681EAB3
:100520000300C00F0C46009021F0004123F000456D
:10053000B8EB0200A94105D24046214690461C4630
:100540000B46024623F00040104347D0270DC7F367
:100550000A00C3F30A510290401A019040286BDA56
:10056000C3F3130040F4801B0098924620B100238F
:10057000D2EB030A63EB0B0B01985946C0F1400222
:10058000504600F093F906460D4650465946019AEA
:1005900000F0ABF910EB08006141002487EA11522A
:1005A00084EAE7731A4340D0009A62B3019A012AA1
:1005B0004FEA075215DC001B61EB02014FF00042CD
:1005C00002EA0752CDE90042001C41F58011324693
:1005D0002B4600F0FFF903B0BDE8F08F40462146FE
:1005E000F9E7001B61EB0201001C41F580130018C4
:1005F0005B412018A2F5001747EB030140EAD570D4
:10060000B6196D4111E06D084FEA360645EAC0752E
:100610004FEA0752001B61EB0201001C41F58011FB
:1006200049084FEA30000019514132462B4603B0C9
:10063000BDE8F04F00F0BFB9009801224000002350
:10064000D0EB020263EBE073009821464FEAE074BE
:10065000B8EB000061EB0401E9E783F000435BE7DE
:1006600081F0004158E72DE9FE4F81EA030404F0D0
:10067000004421F0004100944FF0000B23F00043B0
:1006800050EA01045ED052EA03045BD0C3F30A547B
:10069000C1F30A552C44A4F2F3340194A0FB025494
:1006A000C1F3130141F48011C3F3130343F4801326
:1006B00001FB024400FB034E840A970A44EA81547A
:1006C00047EA8357A4FB076802958D0A05FB078557
:1006D0004FEA932C04FB0C542705029D4FEA065861
:1006E00047EA1637B5EB08056EEB070C870E920E3E
:1006F00047EA811742EA8312A7FB0201B6EB0B011E
:1007000064EB00042B0D43EA0C335E1844EB1C50E1
:10071000DA465146E7FB0201C5F313044FEA0B33F7
:1007200043EA14534FEA0432019C43EA0603A4F15E
:100730000C040294009CCDE900B400F04BF903B026
:10074000BDE8F08F00200146F9E72DE9F04D81EA80
:10075000030404F0004B21F0004514464FF0000A5A
:1007600023F0004150EA050220D054EA01021DD0D6
:10077000C5F30A570246C5F31303C1F31300C1F3CF
:100780000A5640F4801543F48013A7EB0608101BAB
:10079000D64608F2FD3873EB050002D308F10108D4
:1007A00001E092185B41B8F1000F03DA0020014626
:1007B000BDE8F08D00204FF48011064684460EE01F
:1007C000171B73EB050705D3121B63EB05030643E9
:1007D0004CEA010C49084FEA300092185B4150EA9C
:1007E0000107EDD152EA030012D082EA040083EA45
:1007F0000501084305D0101BAB4106D2012200239E
:1008000006E000224FF0004302E06FF001025310B7
:100810001AEB06004CEB085110EB0A0041EB0B0100
:10082000BDE8F04D00F0C7B8C1F30A52C1F313019F
:1008300040F2FF3341F480119A4202DA002001466F
:10084000704740F233439A42A2F2334202DC5242F2
:1008500000F03BB800F02AB830B5041E71F1000476
:1008600004DB4FF00044404264EB0101141E73F1BD
:10087000000405DB1C464FF00043524263EB0403C7
:10088000994208BF904230BD064C074D06E0E06833
:1008900040F0010394E8070098471034AC42F6D3C7
:1008A000FFF728FC643F0008843F0008202A04DB8F
:1008B000203A00FA02F1002070479140C2F1200373
:1008C00020FA03F3194390407047202A04DB203AB2
:1008D00021FA02F00021704721FA02F3D040C2F160
:1008E00020029140084319467047202A06DBCB17A7
:1008F000203A41FA02F043EAE07306E041FA02F3DB
:10090000D040C2F1200291400843194670470000D0
:1009100000487047F03E00082DE9F05F82460078FD
:10092000002715468B460AF10104B946302801D04C
:100930009DB113E014F8010B0127782803D0582843
:1009400001D045B10AE00DB1102D07D100271025C7
:1009500014F8010B02E0082500E00A250026B04645
:100960000EE005FB080005FB06F1012701EB104630
:100970001FFA80F8B6F5803F00D3B94614F8010B92
:10098000294600F075F80028EBDABBF1000F05D01E
:100990000FB1641E00E05446CBF80040B9F1000FDF
:1009A00006D001F0F5F802210160C81EBDE8F09FF5
:1009B00048EA0640FAE710B5141E73F1000408DA9D
:1009C000401C41F1000192185B411A4301D120F013
:1009D000010010BD2DE9F04D92469B4611B1B1FAD0
:1009E00081F202E0B0FA80F220329046FFF75EFF1B
:1009F00004460F4640EA0A0041EA0B0153465A46B4
:100A0000084313D0114653EA010019D0C8F140023F
:100A10005046FFF75AFF05460E4650465946424695
:100A2000FFF744FF084305D0012004E02046394683
:100A3000BDE8F08D0020054346EAE0762C433743BD
:100A40000A986305E40AA0EB08000022FD0A44EAC4
:100A500047540A3002D500200146E9E70105101984
:100A60006941DDE9084500196941BDE8F04DA2E79B
:100A70003A2800D2303820F02002412A01D3A2F1D6
:100A80003700884201D34FF0FF30704708B501218D
:100A9000042000F009FC0220ADF8000010208DF8C1
:100AA000030003208DF802006946044800F09AFA1A
:100AB0000221024800F075FB08BD0000000801405B
:100AC00010B50221014800F06CFB10BD0008014088
:100AD00010B50221014800F062FB10BD0008014082
:100AE00010B50121042000F0DFFB10200649C8707A
:100AF0002020088003208870044800F073FA202129
:100B0000024800F04EFB10BD4400002000080140E8
:100B10002DE9F04104466078FFF730FC07460649AE
:100B2000FFF7FAFB05462078FFF728FC0646294622
:100B3000FFF79AFBBDE8F081CDCCCC3D2DE9F0412B
:100B40000446E078FFF71AFC07460649FFF7E4FB86
:100B50000546A078FFF712FC06462946FFF784FBFE
:100B6000BDE8F081CDCCCC3D70B5044600202060BE
:100B7000207100F013FC01F0C5FD012807D000F042
:100B8000BDFC2021164800F00CFB002070BD0025A4
:100B900010E001F077FD6055605DFF2809D1002D60
:100BA00007DD00F0ABFC20210D4800F0FAFA002030
:100BB000ECE76D1C052DECDB207861780844A1780A
:100BC0000844E17808442179884201D10120DDE719
:100BD00000F094FC2021024800F0E3FA0020D5E761
:100BE0000008014070B50446002504E04FF47A7017
:100BF00000F004F86D1CA542F8D370BD07490968E0
:100C0000074AB1FBF2F10522B1FBF2F1484300E0E3
:100C100000BF011EA0F10100FAD17047BC00002006
:100C200040420F0021B1026842F00102026004E07C
:100C300002684FF6FE731A4002607047014648682A
:100C400080B2704710B50022026847F6F0739A43ED
:100C50000C6A8B6823430C6923434C6923438C69DA
:100C60002343CC6923434C6A23438C6A23431A43AE
:100C70000260CB6843600B6883604B68C36010BD43
:100C80004160704700B5A1B000203C4908703CA00D
:100C900000F0A8FB4FF4FA623EA140A000F082F9F8
:100CA00041A000F09FFB4FF4FA7245A145A000F06F
:100CB00079F946A000F096FB4FF4FA7240A149A0E2
:100CC00000F070F94BA000F08DFB50A054A355A28A
:100CD0008021009001A800F043FF42F2107257A15A
:100CE00001A800F05FF918B156A000F07BFB02E00C
:100CF0005BA000F077FB62A000F074FB65A068A326
:100D000068A28021009001A800F02AFF4FF47A72B7
:100D10002BA101A800F046F96FA000F063FB40F2A0
:100D20005B7074A377A28021009001A800F018FFE7
:100D300041F288327AA101A800F034F910B17CA008
:100D400000F050FB80A000F04DFB84A386A2802120
:100D500001A800F005FF4FF4FA6219A101A800F004
:100D600021F987A000F03EFB012004490870C8214A
:100D70008B48FFF73CFA21B000BD000000000020C6
:100D8000312E20526573657474696E672E2E2E0D98
:100D90000A000000726561647900000041542B5222
:100DA00053540D0A00000000322E20446973616222
:100DB0006C65204563686F2E2E2E0D0A0000000022
:100DC0004F4B0000415445300D0A0000332E205394
:100DD000657474696E67204D6F64652E2E2E0D0A42
:100DE0000000000041542B43574D4F44453D310D09
:100DF0000A000000342E20436F6E6E656374696EC6
:100E00006720576946692E2E2E0D0A00776F6E698E
:100E100075406A69616E6B6F6E672E636F6D00005F
:100E20006A6B000041542B43574A41503D222573C1
:100E3000222C222573220D0A00000000474F542067
:100E4000495000002020205769466920436F6E6E8C
:100E5000656374656420284661737429210D0A0056
:100E6000202020576946692054696D656F7574208C
:100E700028436865636B2050776429210D0A0000C0
:100E8000352E20436F6E666967204D5154542E2EC7
:100E90002E0D0A0031323334353637380000000069
:100EA0007A67000041542B4D5154545553455243D9
:100EB00046473D302C312C2253544D33325F45642C
:100EC0006765222C222573222C222573222C302C9C
:100ED000302C22220D0A0000362E20436F6E6E65E4
:100EE0006374696E672042726F6B65722E2E2E0DD1
:100EF0000A0000003131382E3139362E34362E3189
:100F00003639000041542B4D515454434F4E4E3D01
:100F1000302C222573222C25642C310D0A00000070
:100F20002B4D515454434F4E4E45435445440000BD
:100F300020202042726F6B657220436F6E6E656376
:100F4000746564210D0A0000372E205375627363A7
:100F5000726962696E672E2E2E0D0A00636D645FE2
:100F6000746F70696300000041542B4D5154545309
:100F700055423D302C222573222C310D0A000000F1
:100F80003D3D3D20496E697420446F6E65202846C2
:100F9000617374204D6F646529203D3D3D0D0A004D
:100FA0009C0200202DE9F04106460F461446C82158
:100FB0000B48FFF71CF9304600F014FA00250BE04F
:100FC00039460748FFF71EF910B10120BDE8F0814E
:100FD0000A2001F0BFFA0A35A542F1D30020F5E757
:100FE0009C0200202DE9F041024600250026002049
:100FF00000230024002791F803C00CF00F0591F89E
:1010000003C00CF0100CBCF1000F03D091F802C02B
:101010004CEA050591F800C0BCF1000F31D014680E
:1010200000202BE04FF0010C0CFA00F3B1F800C0E7
:101030000CEA03069E4220D183004FF00F0C0CFAFD
:1010400003F7BC4305FA03FC4CEA040491F803C01F
:10105000BCF1280F06D14FF0010C0CFA00FCC2F8CD
:1010600014C00AE091F803C0BCF1480F05D14FF05D
:10107000010C0CFA00FCC2F810C0401C0828D1D3A7
:101080001460B1F800C0BCF1FF0F34DD54680020DB
:101090002EE000F1080C4FF0010808FA0CF3B1F84B
:1010A00000C00CEA03069E4221D183004FF00F0CD2
:1010B0000CFA03F7BC4305FA03FC4CEA040491F86C
:1010C00003C0BCF1280F05D100F1080C08FA0CF898
:1010D000C2F8148091F803C0BCF1480F07D100F1A9
:1010E000080C4FF0010808FA0CF8C2F81080401CF8
:1010F0000828CED35460BDE8F0810000F0B50A4660
:10110000002300240021002500F00046B6F1004F26
:1011100002D11D4EF16901E01B4E7168C0F3034519
:1011200083B200F44016B6F5401F08D121F070617B
:10113000154E766826F07066134F7E6012E000F45C
:101140008016B6F5801F06D1032606FA05F4A143E2
:1011500041F0706106E0460D360103FA06F6B14330
:1011600041F0706122B1460D360103FA06F63143B3
:1011700000F00046B6F1004F02D1034EF16101E0EC
:10118000014E7160F0BD00000000014002460020E9
:1011900093680B400BB1012000E0002070474161D3
:1011A000704701617047000008B50121042000F07C
:1011B0007BF80420ADF8000048208DF80300694654
:1011C0000148FFF70FFF08BD0008014010B50421DA
:1011D0000348FFF7DBFF08B9012010BD0020FCE742
:1011E0000008014070B5002100230F22C47804B329
:1011F000154C246804F4E064C4F5E064210AC1F1EC
:101200000403CA40447804FA03F18478144021436B
:1012100009010E4C0678A155047804F01F0501243D
:10122000AC4005786D11AD0005F1E025C5F8004131
:1012300009E0047804F01F050124AC40044D067851
:10124000761145F8264070BD0CED00E000E400E0AA
:1012500080E100E002490143024A1160704700004A
:101260000000FA050CED00E029B1064A526902437C
:10127000044B5A6104E0034A52698243014B5A61AC
:10128000704700000010024029B1064AD2690243AB
:10129000044BDA6104E0034AD2698243014BDA610C
:1012A000704700000010024029B1064A92690243CB
:1012B000044B9A6104E0034A92698243014B9A61AC
:1012C000704700000010024030B5002100220024C9
:1012D00000232D4D6D6805F00C0121B1042905D0C6
:1012E000082923D105E0294D056022E0274D05603E
:1012F0001FE0254D6D6805F47012234D6D6805F4EF
:101300008034022505EB92421CB9214D55430560FE
:101310000BE01D4D6D6805F400351DB11C4D5543A6
:10132000056002E0194D5543056002E0174D056068
:1013300000BF00BF144D6D6805F0F0010909154D9F
:101340006B5C0568DD4045600F4D6D6805F4E0613C
:10135000090A104D6B5C4568DD4085600A4D6D687B
:1013600005F46051C90A0B4D6B5C4568DD40C560F2
:10137000054D6D6805F44041890B074D6B5CC568F0
:10138000B5FBF3F5056130BD0010024000127A0094
:1013900000093D00A8000020B800002010B500F0B2
:1013A000ADF820210648FFF7FAFE1420FFF71AFCDB
:1013B00020210348FFF7F5FE2820FFF71FFC10BD92
:1013C0000008014010B5044600BF8021044800F029
:1013D000F5FA0028F9D02146014800F0BCFB10BD09
:1013E0000038014010B5044603E014F8010BFFF784
:1013F000E9FF20780028F8D110BD000010B5482082
:101400000249C8700248FFF7EDFD10BD44000020FE
:101410000008014010B500F001F810BD0CB5002027
:10142000019000903348006840F4803031490860F2
:1014300000BF3048006800F4003000900198401C64
:101440000190009818B90198B0F5A06FF1D1294822
:10145000006800F4003010B10120009001E000208D
:1014600000900098012843D12348006840F0100004
:10147000214908600846006820F00300086008461B
:10148000006840F0020008601A4840681949486046
:101490000846406848600846406840F480604860FC
:1014A0000846406820F47C1048600846406840F4D4
:1014B000E81048600846006840F08070086000BF8F
:1014C0000C48006800F000700028F9D00948406816
:1014D00020F00300074948600846406840F00200D9
:1014E000486000BF0348406800F00C000828F9D1AC
:1014F0000CBD0000001002400020024010B510207A
:101500000249C8700248FFF76DFD10BD440000207D
:101510000008014010B500BFBF2080F31188BFF361
:101520004F8FBFF36F8F00BF02F0A6FA18B14FF0D4
:1015300080500449086000BF002080F3118800BF7C
:1015400010BD000004ED00E010B51348006840F045
:1015500001001149086008464068104908400E49DA
:101560004860084600680E4908400B490860084674
:10157000006820F4802008600846406820F4FE00DF
:1015800048604FF41F008860FFF744FF4FF0006091
:101590000449086010BD0000001002400000FFF880
:1015A000FFFFF6FE08ED00E021B1028842F00102E3
:1015B000028004E002884FF6FE731A4002807047F2
:1015C00031B1B0F8442042F40042A0F8442005E0D4
:1015D000B0F84420C2F30E02A0F844207047000087
:1015E00070B5002400220023058C4FF6FE763540AE
:1015F0000584028C8388048B4FF68F752C40B51EB2
:101600002C400D882C43751E2A400D892A434D8895
:101610002A43144DA8420BD0134DA84208D0134DB5
:10162000A84205D0124DA84202D0124DA84213D1B3
:101630004FF6F7752A404D892A434FF6FB752A402D
:101640008D882A434FF6FF652B404FF6FF552B4000
:101650008D892B43CD892B4383800483CD88858658
:10166000028470BD002C0140003401400040014064
:1016700000440140004801400021018041808180F8
:10168000C180018141818181C1817047818670471C
:10169000002202881D4B98420ED01D4B98420BD061
:1016A000B0F1804F08D01B4B984205D01A4B98429E
:1016B00002D01A4B984204D14FF68F731A404B88D0
:1016C0001A43174B984207D0164B984204D04FF656
:1016D000FF431A40CB881A4302808B8883850B888E
:1016E00003850A4B98420BD0094B984208D00E4B09
:1016F000984205D00D4B984202D00D4B984201D133
:101700000B7A03860123838270470000002C01407E
:10171000003401400004004000080040000C00407C
:10172000001000400014004000400140004401400F
:101730000048014070B540F22441474800F04BF9A1
:1017400000287DD0444800F001FA4448FFF776FABB
:10175000C0F1C8004249087008460078002860DDE2
:101760004048007828B900203F493D4A1278885403
:1017700057E0002550E03C48445D7B2C12D101200D
:101780003A49087000203A490880C8213948FEF7D4
:101790002EFD374801880088401C354A10803548A6
:1017A000445437E03148007800B933E030480088CD
:1017B000C72829DA2E4801880088401C2C4A10804E
:1017C0002C4844547D2C24D100202A491288885466
:1017D00026490870C8212448FEF709FD24480288DC
:1017E000521C24492048FEF7E9FC022300221E492E
:1017F0002148006802F00EF800201D490880C82129
:101800001C48FEF7F4FC0BE000201849087018494A
:10181000088000BF681C85B2114800788542AADBA9
:1018200000BF00210D48FFF7FDF9C8210B48FFF765
:1018300027FA01210948FFF7F5F90A48007800E086
:1018400008E0012806D1002005490870C821064893
:10185000FEF7CDFC70BD000000380140580002408A
:1018600034000020000000209C02002038000020EE
:1018700036000020D40100204000002000B587B0D1
:1018800001218803FFF710FD01210420FFF70CFD63
:1018900018208DF81B004FF40070ADF818000320DD
:1018A0008DF81A0006A92348FFF79CFB04208DF849
:1018B0001B000002ADF8180006A91E48FFF792FBB6
:1018C0004FF4E13002900020ADF814000C20ADF888
:1018D00012000020ADF81000ADF80E00ADF80C00BD
:1018E00002A9154800F0C6F800F03EF80122402198
:1018F000114800F02FF8012240F225510E4800F067
:1019000094F8012240F224410B4800F08EF8252083
:101910008DF8040001208DF807008DF805008DF882
:10192000060001A8FFF75EFC0121034800F006F85D
:1019300007B000BD000801400038014021B1828994
:1019400042F40052828104E082894DF6FF731A400E
:10195000828170471AB1838A0B43838202E0838AB3
:101960008B4383827047000000B58BB0012108468D
:10197000FFF77AFC0E4800900020069004900D4876
:1019800001900020079080200590C820039000203F
:1019900002900A9008904FF400500990694606485A
:1019A000FFF750F901210448FFF73CF90BB000BDE7
:1019B000043801409C0200205800024002460020EA
:1019C000B1F5007F00D100BF13880B400BB101209F
:1019D00000E00020704770B5024600240023002577
:1019E000002040F66A16B14200D100BFC1F3421593
:1019F00001F01F03012606FA03F3012D02D1968997
:101A0000334006E0022D02D1168A334001E0968A67
:101A100033400C12012606FA04F41688344013B140
:101A20000CB1012000E0002070BDF0B50346002499
:101A300000260025002040F66A17B94200D100BFF9
:101A40001846C1F3421401F01F06012707FA06F5F4
:101A5000012C01D10C3004E0022C01D1103000E047
:101A600014301AB107682F43076002E00768AF43DC
:101A70000760F0BD2DE9F04786B005460E4600240C
:101A8000A24600BFA1460027B08900B100BF2F4683
:101A90002C8A4CF6FF700440F08804432C82AC89F9
:101AA0004EF6F3100440B088318908437189084329
:101AB0000443AC81AC8A4FF6FF400440B089044334
:101AC000AC8201A8FFF700FC1F48874202D1DDF875
:101AD00010A001E0DDF80CA0A88900F4004040B19E
:101AE0000AEBCA0000EB0A1031684900B0FBF1F8BC
:101AF00007E00AEBCA0000EB0A1031688900B0FB6E
:101B0000F1F86420B8FBF0F004012009642101FB26
:101B10001089A88900F4004040B1322000EBC900D0
:101B2000B0FBF1F000F00700044308E0322000EBC6
:101B300009106421B0FBF1F000F00F0004432C8188
:101B400006B0BDE8F08700000038014001468888F3
:101B5000C0F308007047C1F308028280704700009C
:101B60000FB41CB50246002007AC00290BD0491E5B
:101B7000CDE90021054B6A462146069800F0DEF8C3
:101B8000009A002111701CBC5DF814FB6B24000846
:101B900000487047D000002002E008C8121F08C1AA
:101BA000002AFAD170477047002001E001C1121FDE
:101BB000002AFBD1704700002DE9FF5F82B00021B1
:101BC000DDE90430020DDDF840B0034318D044F6DF
:101BD0001050A2F2FF3242431514119801281FD071
:101BE000A5EB0B00401C5FEA000A4FF000064E4FC9
:101BF000DFF83891B046504615D5CAF1000413E01D
:101C0000119801244AA3012801D16FEA0B0102981F
:101C1000119AC0E90031C0E9024206B0BDE8F09F68
:101C2000CBF10000DFE704460021404A491842EBAF
:101C30000450CDE9001012E0E00707D032463B46E1
:101C400040464946FEF70FFD8046894632463B46F0
:101C500010461946FEF707FD06460F466410002C95
:101C6000EAD1DDE90401DDE90023BAF1000F06DA6B
:101C7000FEF7F9FC42464B46FEF7F5FC05E0FEF7A1
:101C800064FD42464B46FEF760FD04460E460022C8
:101C9000284BFEF7E1FD03D84FF0FF30014607E087
:101CA0000022254B20463146FEF736FCFEF7BCFDF0
:101CB000102409E0002C0ADB0A220023FEF78CFB2B
:101CC000039B30321A55641E50EA0102F2D1641CA3
:101CD000039AC4F111031444119A012A03D001227A
:101CE00008430DD10AE0084304D000204FF0110B47
:101CF000119072E7A3EB0B056D1E0DE05B4504DD53
:101D00004FF0000205F1010504E003DA4FF0000294
:101D1000A5F10105002AECD002981199C0E9023121
:101D2000C0E9004579E70000000014400000F03FE2
:101D3000300000000000F0430000E03F2DE9FF4FBD
:101D400095B09B468946064600250FE2252877D1A7
:101D500000242746F84A0121059400E0044316F8C0
:101D6000013F203B01FA03F01042F7D130782A28D6
:101D700011D06FF02F033078A0F13002092A16D865
:101D8000059A44F0020402EB820203EB4202104483
:101D9000761C0590EFE759F8042B0592002A03DA28
:101DA000504244F40054059044F00204761C30780C
:101DB0002E2816D116F8010F44F004042A280DD05D
:101DC0006FF02F023078A0F13003092B09D807EB10
:101DD000870302EB4303C718761CF3E759F8047B2B
:101DE000761C30786C280FD006DC4C2817D0682879
:101DF0000DD06A2814D104E0742810D07A280FD1AD
:101E00000DE044F400140AE044F4801401E044F4CA
:101E100040147278824202D104F58014761C761C3C
:101E2000307866280BD013DC582877D009DC0028DE
:101E300075D04528F6D04628F4D047281AD19DE120
:101E400018E0632835D0642879D0652812D195E14F
:101E5000702873D008DC6728F1D069286FD06E280D
:101E60000DD06F2806D1B5E073282CD0752875D019
:101E7000782874D05A46179990476D1C75E1C4F3C1
:101E80000250022809D003280DD0D9F800100428E8
:101E90000DD00D6009F1040967E1D9F80010EA17C7
:101EA000C1E90052F6E7D9F800100D80F2E70D7095
:101EB000F0E719F8041B8DF8001000208DF80100E0
:101EC000EA46012003E059F804AB4FF0FF30610708
:101ED0004FF0000102D40DE008F101018846B9423B
:101EE0000FDA8045F8DB1AF808100029F4D108E071
:101EF00008F1010188468142FADB1AF8081000292E
:101F0000F6D105985B46A0EB080721463846179A9C
:101F100000F094FA284400EB080507E04DE029E1C1
:101F20000DE01AF8010B5A4617999047B8F10108CD
:101F3000F7D25B4621463846179A13E142E00A225F
:101F40000092C4F302524FF0000A022A08D059F856
:101F500004CB032A4FEAEC710AD00DE029E02AE015
:101F600009F1070121F00702F2E802C1914609E0F8
:101F70000FFA8CFC4FEAEC71042A03D14FFA8CFC67
:101F80004FEAEC71002907DA0A460021DCF1000C67
:101F900061EB02012D2202E0220504D52B228DF8EF
:101FA0000420012203E0E20701D02022F7E7904657
:101FB00059E00A2102E010220DE010214FF0000A42
:101FC00000910BE010224FF0000A44F004040827AF
:101FD000009203E008224FF0000A0092C4F302527C
:101FE000022A05D059F804CB0021032A08D009E0C1
:101FF00009F1070121F00702F2E802C1914605E06C
:102000001FFA8CFC042A01D10CF0FF0C4FF00008E1
:10201000220728D5702806D0009B83F0100353EACE
:102020000A0305D00EE040228DF80420012208E0CA
:102030005CEA010206D030228DF804208DF80500FC
:1020400002229046009B83F0080353EA0A030AD158
:102050005CEA010201D1620705D530228DF8042027
:102060004FF001087F1E582804D034A003900EA81A
:1020700002900DE036A0F9E753466046009AFEF75D
:10208000ABF984460398825C0298401E029002706D
:102090005CEA0100F0D1029806A9081A00F1200AB2
:1020A000600702D524F4803400E00127574502DDA3
:1020B000A7EB0A0000E0002000EB0A010090059861
:1020C0004144401A0590E00306D45B462146179A26
:1020D000059800F0B3F90544002706E001A85A4628
:1020E000C05D179990476D1C7F1C4745F6DBE003E8
:1020F0000CD55B462146179A059800F09FF90544D8
:1021000004E030205A46179990476D1C0099481EEC
:1021100000900029F5DC08E0029802995A46007800
:10212000491C0291179990476D1CBAF10001AAF160
:10213000010AF1DC65E10000092801003031323389
:1021400034353637383961626364656600000000F3
:1021500030313233343536373839414243444546DD
:102160000000000000F058F90544761C3078002883
:102170007FF4ECAD19B02846BDE8F08F620700D4BB
:10218000062709F1070222F0070CFCE80223E146CA
:1021900003F000485FEA080C02D00FF2702C0DE04B
:1021A0005FEA045C02D50FF2682C07E05FEAC47CAA
:1021B00002D00FF2602C01E0AFF2700C4FF0FF384C
:1021C00023F00043CDF850C065280CD006DC45282C
:1021D00009D046281DD047283DD13DE0662818D0BB
:1021E00067287ED138E00021112F01DB112000E0AB
:1021F000781CCDE9000106A90EA8FFF7DDFCDDE99A
:102200000F010E9A03910021009207F1010A049137
:102210004DE04FF000400097CDE9011006A90EA84F
:10222000FFF7CAFCDDE90F0203920E9B1199002211
:10223000DDF80CA00093049211B9791C00EB010A9F
:10224000B7EB0A0004D4C0F1FF3007F1010A049093
:10225000AAEB0700019044E0012F00DA01270021DA
:10226000112F01DD112000E03846CDE9000106A95B
:102270000EA8FFF7A1FCDDE90F010E9A03910021E2
:1022800004910092BA4621070CD40399514500DA13
:102290008A46BAF1010F05DD009AAAF10101515CED
:1022A000302908D0B84202DA10F1040F06DA012111
:1022B000CDE9011015E0AAF10101E9E7002805DCEC
:1022C000049901440491AAEB000102E0411C51452C
:1022D00000DD8A460499401A401C01904FF00040EE
:1022E0000290200704D40198504501DBCDF804800A
:1022F00000208DF84F0002980DF14F07B0F1004F0C
:1023000025D02B200E9002984FF0020800280CDAFE
:10231000404202902D200E9007E00A210298FEF71D
:1023200045F83031029007F8011DB8F10001A8F11D
:102330000108F2DC02980028EFD1791E0E9808708F
:10234000307800F0200040F0450007F8020D12A898
:10235000C01B00F107081498007800B1012000EBC1
:102360000A01019801EBE07105984144401A401EB2
:102370000590E00306D45B462146179A059800F0C5
:102380005DF805441498007818B15A46179990479B
:102390006D1CE00324D55B462146179A059800F092
:1023A0004DF805441CE00498002807DBDDE9030133
:1023B000884203DD0098405C179901E017993020AE
:1023C0005A469047049805F10105401C0490019875
:1023D000401E019004D12E205A46179990476D1C3B
:1023E000BAF10001AAF1010ADDDC05E017F8010BE2
:1023F0005A46179990476D1CB8F10001A8F10108E1
:10240000F4DC5B462146179A0598ABE62D000000E8
:102410002B000000200000002DE9F04104460025BB
:102420001E461746880404D405E039462020B047EC
:102430006D1C641EF9D52846BDE8F0812DE9F041F8
:10244000044600251E469046C80301D5302700E00B
:102450002027880404D505E041463846B0476D1C66
:10246000641EF9D52846BDE8F0814A68002A06D0E6
:102470000A68531C0B6010704868401E4860704723
:1024800010B54FF480510448FEF78BFE4FF4006105
:102490000148FEF784FE10BD000C01401CB5044647
:1024A00000F0C0FF1748032100234FF40072CDE96C
:1024B000001015A1174801F0ABFA174802210023BC
:1024C0000A02CDE9001015A1174801F0A1FA17483A
:1024D000022100234A02CDE9001015A1174801F09E
:1024E00097FA174804210023CA01CDE9001015A16D
:1024F000174801F08DFA00F0A7FF002001F000F866
:102500001CBD0000100000204445565F4354524C4F
:1025100000000000A5250008040000204448545F86
:102520005461736B0000000035260008080000208D
:102530004D5154545F505542000000002D280008B2
:102540000C0000204D5154545F53554200000000D0
:10255000ED27000800B5034603B900BD03E04FF4C2
:102560007A7000F006F8181EA3F10103F7D100BF3E
:10257000F3E700EBC001C900491E4FF0E0225161B2
:10258000002191610521116100BF4FF0E02109692F
:1025900001F480310029F8D000214FF0E0221161D0
:1025A0007047000038E01D49087800F0C5FE1C495E
:1025B000087800F0B5FE1B480068B0F1FF3F08D076
:1025C00020B1012808D100F04FF808E0FFF758FFCC
:1025D00005E000F0C9FE02E000F0C6FE00BF00BF4B
:1025E0001149087800F0B4FEFEF7F0FD012808D18B
:1025F000FEF766FA00200D49086001200C490860CA
:1026000007E0FEF765FA0120084908600020084944
:102610000860322000F05AFFC5E7000020000020CB
:102620003000002024000020280000202C00002082
:102630001C0000201CB512E06846FEF795FA012840
:1026400009D16846FEF77AFA054908606846FEF740
:102650005FFA044908604FF4FA6000F037FFEBE7D7
:10266000140000201800002010B54FF40061044849
:10267000FEF797FD4FF480510148FEF790FD10BD25
:10268000000C014070B50026002533E01B4C04E02F
:10269000601E041E01D1FF2070BD20211848FEF7E6
:1026A00075FD0128F4D0154C04E0601E041E01D114
:1026B000FF20F1E720211248FEF768FD0028F4D042
:1026C0002320FEF79BFA20210D48FEF75FFD01282D
:1026D00002D1802028410643084C04E0601E041EFD
:1026E00001D1FF20D8E720210548FEF74FFD012842
:1026F000F4D06D1C082DC9DB3046CDE7A086010063
:102700000008014010B5FEF779FE134C03E0601E8F
:10271000041E00D110BD20211048FEF737FD01280E
:10272000F5D00D4C03E0601E041E00D1F2E720211D
:102730000A48FEF72BFD0028F5D0074C03E0601E89
:10274000041E00D1E6E720210448FEF71FFD012802
:10275000F5D00120DEE70000A0860100000801405E
:102760002DE9F04F89B083468A46904699465346F4
:102770001CA2202101A8FFF7F3F901A95846FDF793
:1027800041FD064626B94FF0FF3009B0BDE8F08F95
:1027900001A8FDF755FD06443446254600E0641CBB
:1027A00020782028FBD020780928F8D0254600E0A2
:1027B0006D1C28782C2805D028787D2802D0287810
:1027C0000028F5D12F1BA9F10100B84200DA074615
:1027D0003A4621464046FDF727FD002008F807004D
:1027E00000BFD2E7222573223A000000B2B01AE0FF
:1027F000642269460C48006801F058F8012812D19B
:102800009DF800007B280AD16846FDF719FD401E9F
:102810001DF800007D2802D1684600F03BF9C82170
:102820006846FDF7E4FCE3E7400000209AB04BE087
:102830004FF480712548FDF7DAFC25480068FDF764
:10284000A2FD05460E4623480068FDF79CFD07469D
:1028500088462148006821490968214A1268214BAD
:102860001B68CDE90632CDE908101F4800681F49F2
:1028700009681F4ACDE90078CDE90256CDE9041078
:102880004FF480711148FFF76BF91048FDF7D8FC41
:10289000044600211748006800F06CFF16A31AA236
:1028A00040210AA80094FFF75BF90AA8FEF79AFDF9
:1028B0004FF4FA7000F00AFE0448FEF793FD4FF45F
:1028C000FA6000F003FE00BFB2E70000D400002071
:1028D0001800002014000020300000202C000020F0
:1028E0002800002024000020200000201C000020E0
:1028F000F43E0008400000207374617475735F74C7
:102900006F7069630000000041542B4D51545450C6
:1029100055425241573D302C222573222C25642CE0
:10292000302C300D0A00000000B589B00121C8022A
:10293000FEF7BAFC01210420FEF7B6FC0020ADF83A
:102940001E00ADF81A0042F20F70ADF81C008F2087
:10295000ADF8180000208DF8200006A91648FEF7F3
:1029600097FE01211448FEF72BFE02A8FEF784FE15
:102970006020ADF808000020ADF81000ADF80E00A2
:102980000120ADF80A0002A90B48FEF729FE182025
:102990008DF8070003208DF806004FF48070ADF825
:1029A000040001A90548FEF71DFB01210248FEF7BE
:1029B000FBFD09B000BD0000002C014000080140F3
:1029C0001CB54FF44070FEF745FC0022C8210420DE
:1029D00000F0AAFE154908600846006808B900BF63
:1029E000FEE7FEF74BFFFEF77BF800F041FCFFF738
:1029F0009BFF00F037F8FEF749F8FEF7D5FB0CA077
:102A0000FEF7F0FCFEF73EF90CA0FEF7EBFC002011
:102A1000012103468022CDE900100DA1104800F0ED
:102A2000F7FF00F0F9FD00BFFEE7000040000020C6
:102A3000496E69742E2E2E0D0A00000053636865DE
:102A400064756C6572205374617274210D0A000004
:102A50004372656174655F5461736B7300000000BD
:102A60009D24000808B500F0A9FB01210820FEF70D
:102A70001BFC10208DF8030003208DF80200C0021B
:102A8000ADF8000069460248FEF7ACFA08BD000048
:102A9000000C014010B588B0044620236A461EA1F0
:102AA0002046FFF75DFE20B96846FDF7D0FB1B49C5
:102AB000086020236A461AA12046FFF751FE20B97C
:102AC0006846FDF7C4FB1949086020236A4618A12F
:102AD0002046FFF745FE20B96846FDF7B8FB1749C9
:102AE000086020236A4616A12046FFF739FE20B968
:102AF0006846FDF7ACFB1449086020236A4613A121
:102B00002046FFF72DFE20B96846FDF7A0FB1249CD
:102B1000086008B010BD00006C6564002000002053
:102B20006D6F746F725F6469720000002400002092
:102B30006D6F746F725F73706565640028000020AC
:102B400062757A7A657200002C00002073657276D7
:102B50006F5F616E676C6500300000202DE9F04109
:102B600005460E462648076826480068001D00F006
:102B700009FC50B92348006890F82C1001208840C7
:102B800021490968814320480160681CD8B9D6B141
:102B90001E4948681B49096888601A4982680968A3
:102BA000CA6018490968091D826851601549096899
:102BB000091D8160154A134909684A61114609686F
:102BC000491C11601AE07C190E4800684460BC4240
:102BD00007D20C480168091D0D48006800F0FCFB95
:102BE0000CE008480168091D0A48006800F0F4FB81
:102BF00009480068844201D207480460BDE8F081BA
:102C00005C00002048000020600000201804002024
:102C1000500000204C0000207800002010B5044631
:102C200000F000FC2F480068401C2E4908602E4828
:102C3000006840B92C4804600846006801280DD19E
:102C400000F072F90AE02948006838B9264800689F
:102C5000C06AE16A884201D82348046024480068B9
:102C6000401C2349086094F82C1001208840214919
:102C7000096808431F490860E16A01EB81011E4AA7
:102C800002EB81014868A0608268E260211D8268D1
:102C900051608160E16A01EB8101174A02EB810218
:102CA0006261E16A01EB8101134A52F82110491C6B
:102CB000E26A02EB8202104B43F8221000F0C4FBE0
:102CC0000A48006868B108480068C06AE16A88423A
:102CD00007D24FF0805009490860BFF34F8FBFF310
:102CE0006F8F10BD580000204800002064000020B5
:102CF00074000020600000206403002004ED00E068
:102D000010B516E000F08EFB0C48C068C468201DAA
:102D100000F038FB0A480068401E0949086009486D
:102D20000068401E0749086000F08EFB204600F056
:102D300055F8044800680028E4D110BD04040020C0
:102D4000580000205400002070B504460D46206C49
:102D500070B1216CE0680144E160D4E9021088425E
:102D600001D32168E1602846226CE168FDF726FA6C
:102D700070BD2DE9F04104460F4615464FF000089E
:102D8000A66B206C28B37DB93946226C6068FDF7CC
:102D900015FA216C606808446060D4E9010188423A
:102DA00017D32068606014E03946226CE068FDF7B4
:102DB00005FA216CE068411AE1602168E068884208
:102DC00003D2216CA068411AE160022D01D106B145
:102DD000761E701CA0634046BDE8F08110B5044625
:102DE000206B00F041FB204600F03EFB10BD0000D0
:102DF00030B54FF48843154800F007042CB1C01DCE
:102E000020F00700114C041B1B1B0246104C2260D3
:102E100000240F4D6C60D018083820F007000D4CCE
:102E2000206000240B4D2D686C600A4D2D682C60CD
:102E30001146441A4C60074C24680C60064D4C68DF
:102E40002C60064D4C682C6030BD00002C04002026
:102E500088000020900000209800002094000020AE
:102E600000BFFFF74DFF064800680128F9D94FF071
:102E7000805004490860BFF34F8FBFF36F8FF0E7B6
:102E80006403002004ED00E02DE9F04106460D4604
:102E900017469846069C0DB9246000E02760E6635B
:102EA00025640121204600F065FCBDE8F0812DE994
:102EB000FF5F80460E469146DDE90E7A109CA9F12F
:102EC0000100216B01EB800B2BF0070B7EB100257D
:102ED00007E0715D04F134004155705D00B902E016
:102EE0006D1C102DF5D300BF002143200155052F87
:102EF00000D30427E762201D00F06BFA04F11800EC
:102F000000F067FA2461C7F10500A06164624146E0
:102F10005846039A00F09AF92060BAF1000F01D0E8
:102F2000CAF80040BDE8FF9F10B5002407E004EB9D
:102F300084010F4A02EB810000F03EFA641C052C6C
:102F4000F5D30C4800F038FA0B4800F035FA0B487E
:102F500000F032FA0A4800F02FFA0A4800F02CFA82
:102F600004480949086004480849086010BD000089
:102F700064030020C8030020DC030020F0030020CD
:102F800004040020180400204C0000205000002001
:102F900010B50146164800E0006803688B42FBD379
:102FA0000246436813448B4204D143684C6823446F
:102FB000436001460A464B6813440468A34211D19A
:102FC0000C4C03682468A34208D04B68046864680A
:102FD00023444B6003681B680B6005E0054B1B68CE
:102FE0000B6001E003680B60884200D0016010BDF7
:102FF000880000209000002070B5054600F012FA0D
:10300000A86B08B9012400E0002400F01DFA204656
:1030100070BD000009480068006808B9012000E0A0
:10302000002020B14FF0FF300549086005E003485B
:103030000068C06800680249086070474C000020C2
:103040007800002000BFBF2080F31188BFF34F8FAE
:10305000BFF36F8F00BF00BFFEE770B5044600F0FE
:10306000E1F994F9455010E0606A08B9012000E0E8
:10307000002038B904F1240000F0C6FD18B100F0BA
:10308000B5FA00E003E0681E45B2002DECDC00BF9D
:10309000FF2084F8450000F0D7F900F0C3F994F957
:1030A000445010E0206908B9012000E0002048B930
:1030B00004F1100000F0A8FD08B100F097FA681EB6
:1030C00045B200E001E0002DECDC00BFFF2084F8F9
:1030D000440000F0B9F970BD2DE9F04705464FF006
:1030E000000900F0CFFA3048006808B9FFF780FE09
:1030F00075B105F00700C0F11008C8F1FF30A84213
:1031000001D2012000E0002008B9454400E000257C
:10311000012000EBE570002841D0002D3FD023486E
:10312000006885423BD8224E3046046801E02646BE
:1031300024686068A84202D220680028F7D11A48A3
:10314000006884422BD0306800F1080920683060A4
:103150006068401B102807D967196068401B7860B9
:1031600065603846FFF714FF104960680968081A5F
:103170000E490860084600680E490968884203D273
:103180000A4800680B490860606840F000406060D1
:103190000020206008480068401C0749086000F0D3
:1031A000B7FD4846BDE8F08790000020940000205D
:1031B00088000020980000209C00002000B589B005
:1031C00001210220FEF760F801210420FEF76CF8CF
:1031D0000020ADF81E00ADF81A0042F20F70ADF8F5
:1031E0001C008F20ADF8180000208DF8200006A9E3
:1031F0001448FEF74DFA02A8FEF73EFA6020ADF83B
:1032000008000020ADF8100040F6B830ADF80E0010
:103210000120ADF80A0002A90A48FEF7E1F91820DA
:103220008DF8070003208DF806004020ADF804005B
:1032300001A90548FDF7D6FE01210248FEF7B4F9C1
:1032400009B000BD0004004000080140001F4FF01D
:1032500080730360001F21F001030360001F034B14
:1032600003601438026020387047000045300008C1
:1032700000B589B001210846FEF706F801210420B7
:10328000FEF712F801210846FEF70EF80020ADF80F
:103290001E00ADF81A0042F20F70ADF81C008F202E
:1032A000ADF8180000208DF8200006A94FF08040EE
:1032B000FEF7EEF902A8FEF7DFF96020ADF808008E
:1032C0000020ADF81000FA20ADF80E000120ADF896
:1032D0000A0002A98007FEF783F901210D48FDF7D6
:1032E0000DFF01210C48FDF709FF18208DF807009C
:1032F00003208DF806004FF40040ADF8040001A94A
:103300000648FDF76FFE01218807FEF74DF909B069
:1033100000BD00000001180000023000000801405C
:1033200010B5044604EB840000F1FA014FF0804030
:10333000FEF7ACF910BD000010B50446642004FB94
:1033400000F10248FEF7A2F910BD0000002C014078
:1033500010B50446642004FB00F10248FEF796F91C
:1033600010BD00000004004010B54FF48051044827
:10337000FDF717FF4FF400610148FDF712FF10BD84
:10338000000C014001460A69D1E901309860D1E999
:10339000010358605068884201D18868506000205D
:1033A00008611068401E106010687047014800688E
:1033B000704700005800002000F1080141604FF004
:1033C000FF31816000F10801C160016100210160ED
:1033D000704700210161704710B502460B685C1C04
:1033E0000CB9106907E002F1080000E04068446889
:1033F00024689C42FAD944684C604C68A16088609B
:1034000041600A611468641C146010BD42684A601F
:1034100093688B60936859609160086103685B1CD6
:103420000360704700BFBF2080F31188BFF34F8F48
:10343000BFF36F8F00BF03480068401C014908605C
:1034400070470000A400002006480068401E05499F
:1034500008600846006820B9002080F3118800BF8A
:1034600000BF7047A400002070B506463546E6B19F
:10347000083D2C466068C00FB8B12068A8B96068E4
:1034800020F00040606000F0FDF8084960680968BD
:103490000844064908602046FFF77AFD04480068A2
:1034A000401C0349086000F033FC70BD940000200C
:1034B000A000002000204FF0E02108618861024850
:1034C00048610720086170473F19010070B5044644
:1034D000002544B100F0D6F800212046FFF73EFB5E
:1034E00000F016FC05463DB94FF0805003490860D6
:1034F000BFF34F8FBFF36F8F70BD000004ED00E08E
:1035000070B50546FFF78EFF15B92948006800E041
:1035100028460446201DFFF735FF78B9E06A00EB26
:103520008000244951F8200040B994F82C10012063
:1035300088402149096881431F480160A06A18B189
:1035400004F11800FFF71EFF1C480068401C1B49CF
:10355000086017480068844209D1211D1848FFF708
:1035600055FF18480068401C1649086006E01648D8
:103570000068401E14490860FFF74CFDFFF764FF28
:103580000B480068844202D02046FFF727FC0F4812
:10359000006858B106480068844207D14FF0805057
:1035A0000B490860BFF34F8FBFF36F8F70BD0000F2
:1035B0004800002064030020600000207400002008
:1035C0000404002054000020580000206400002063
:1035D00004ED00E00349096801600349096841609E
:1035E00070470000700000205C00002001200149AD
:1035F000086070476C00002070B505460C46054811
:10360000016818312846FFF7E7FE01212046FFF741
:10361000A5FA70BD480000201CB5124800210B46D9
:103620008022CDE9001010A1114800F0F1F9044604
:10363000012C14D100BFBF2080F31188BFF34F8F3E
:10364000BFF36F8F00BF4FF0FF300A4908600120C1
:103650000949086000200949086000F04BF8084853
:1036600000681CBD7C00002049444C45000000005F
:10367000612E000878000020640000205C0000201B
:103680008000002002480068401C01490860704723
:10369000840000201248006818B101201149086018
:1036A0001DE000200F4908600F480068B0FA80F064
:1036B000C0F11F0101EB81020C4B03EB8200426859
:1036C0005268426000F108024368934202D14268A6
:1036D000526842604268D268054B1A6000BF70476A
:1036E000840000206C0000206000002064030020A3
:1036F0004800002010B50A48006840F47F000849DF
:1037000008600846006840F07F400860FFF7D2FE7E
:10371000002004490860FCF705FD002010BD0000F2
:1037200020ED00E0A40000202DE9F84304460E46F9
:1037300017460025DCB1681EB0FBF4F0B04216D38A
:1037400004FB06F010F1490F11D804FB06F909F14A
:103750004800FFF7C1FC05464DB1A84608F14808EE
:103760003B464246314620460095FFF78DFB2846F2
:10377000BDE8F8832DE9F04105460E4601272C46A9
:10378000002C41D0E06B00283ED0B91EE06BB1FBAD
:10379000F0F0216C884237D3FFF744FED4E90F12D2
:1037A000206801FB0200A0600020A0632068606028
:1037B000E06B401E226C216800FB0211E160FF20DB
:1037C00084F8440084F845009EB9206908B90120B6
:1037D00000E00020A8B904F1100000F015FA80B153
:1037E0004FF080500A490860BFF34F8FBFF36F8FCF
:1037F00007E004F11000FFF7DFFD04F12400FFF7FC
:10380000DBFDFFF721FE00E000273846BDE8F08130
:1038100004ED00E02DE9FF4F81B0054616461F4636
:103820002C4600BFBF21EFF3118081F31188BFF355
:103830004F8FBFF36F8F00BF8146A06BE16B884253
:1038400001D3022F28D194F945A0A06B00903A46ED
:1038500020460299FFF78DFA0AF1010070B9606AFB
:1038600008B9012000E0002038B904F1240000F07C
:10387000CBF910B10EB1012030600AE0FFF796FDE0
:103880008346DA4504D20AF1010040B284F84500CB
:1038900000BF4FF0010801E04FF0000800BF89F3BE
:1038A000118800BF404605B0BDE8F08F2DE9F74113
:1038B00083B005460F464FF000082C4600BFFFF7C7
:1038C000B1FDA66BF6B139462046FFF73DFA701EF2
:1038D000A063206908B9012000E0002060B904F16C
:1038E000100000F091F938B14FF080502F49086076
:1038F000BFF34F8FBFF36F8FFFF7A6FD012006B018
:10390000BDE8F081059818B9FFF79EFD0020F6E7A5
:10391000B8F1000F04D101A8FFF75CFE4FF00108D9
:10392000FFF792FDFFF7AEFEFFF77CFD94F9440030
:10393000401C10B9002084F8440094F94500401C54
:1039400010B9002084F84500FFF77EFD05A901A805
:1039500000F02EF8F0B92046FFF74EFBA0B104F1BD
:1039600024000599FFF748FE2046FFF776FB00F09C
:10397000CFF90028A3D14FF080500C490860BFF365
:103980004F8FBFF36F8F9AE72046FFF766FB00F07B
:10399000BFF994E72046FFF760FB00F0B9F9204635
:1039A000FFF72AFB00288AD00020A8E704ED00E0FA
:1039B00070B506460C46FFF735FD1348026870687F
:1039C000131A2068401C08B9002519E00F49306817
:1039D0000968884206D07068904203D8012500200B
:1039E00020600DE02068984207D92068C01A206046
:1039F0003046FFF7EFFD002502E0002020600125A2
:103A0000FFF722FD284670BD5C00002070000020FA
:103A10002DE9FF4F85B0804689461746DDE912AB98
:103A2000B800FFF759FB064676B14C20FFF754FB70
:103A300004462CB14C212046FCF7D9FB266304E058
:103A40003046FFF711FD00E000247CB10020CDE9F5
:103A500000ABCDE902403A4649464046089BFFF795
:103A600026FA2046FFF7DAF8012501E04FF0FF358E
:103A7000284609B0BDE8F08F2DE9F04100275748EE
:103A8000006800287ED156480068451C54480560EF
:103A90008DB95448D0F800805348006851490860F7
:103AA0005148C0F8008051480068401C4F490860E8
:103AB000FFF7B0FA00BF4E480068854276D300BFDA
:103AC00048480068006808B9012000E0002020B1E3
:103AD0004FF0FF304649086067E042480068C06820
:103AE000C4686668B54202D2414806605DE060691C
:103AF000D4E902128A60D4E902214A60211D426899
:103B00008A4201D1E1684160002262610168491E78
:103B10000160A06A98B1A06AD4E907128A60D4E96A
:103B200007214A6004F1180142688A4201D1216AE2
:103B300041600022A2620168491E016000BF94F842
:103B40002C10012088402B49096808432949086046
:103B5000E16A01EB8101284A02EB81014868A0601B
:103B60008268E260211D826851608160E16A01EB38
:103B70008101214A02EB81026261E16A01EB81016C
:103B80001D4A00E022E052F82110491CE26A02EBD3
:103B90008202194B43F822101849E06A0968C96A81
:103BA00088428DD901278BE700E000BF13480068E9
:103BB000C06A00EB8000104951F82000012800D9AC
:103BC00001270F48006800B1012704E00D48006894
:103BD000401C0C4908603846BDE8F0818400002094
:103BE0005C0000204C0000205000002070000020ED
:103BF00078000020600000206403002048000020BE
:103C00006C0000206800002070B50346D868C168C9
:103C1000886AD1E90745A560D1E90754656001F1DB
:103C200018044568A54201D10C6A446000258D62E4
:103C30000468641E04603048006800283DD148696B
:103C4000D1E90245A560D1E9025465600C1D4568C3
:103C5000A54201D1CC68446000254D610468641E12
:103C6000046091F82C400120A040244C246820439B
:103C7000224C2060CC6A04EB8404214D05EB8404C3
:103C8000606888608568CD600C1D85686C608460A4
:103C9000CC6A04EB84041A4D05EB84054D61CC6AB3
:103CA00004EB8404164D55F82440641CCD6A05EBE2
:103CB0008505134E46F8254010E0124C6068C86137
:103CC00085680D6201F1180485686C6084600D4D93
:103CD0008D622C462468641C2C6000BF0A4CC86AA4
:103CE0002468E46AA04204D901220120074C206024
:103CF00000E00022104670BD84000020600000201B
:103D000064030020F0030020480000206C00002025
:103D100070B500240026FFF785FB4B480068401E65
:103D2000494908600846006800287DD14748006876
:103D3000002879D05BE04648C068C468A06AD4E92E
:103D400007128A60D4E907214A6004F11801426829
:103D50008A4201D1216A41600022A2620168491EA3
:103D600001606069D4E902128A60D4E902214A60E4
:103D7000211D42688A4201D1E168416000226261EE
:103D80000168491E016094F82C10012088403149D7
:103D9000096808432F490860E16A01EB81012E4A56
:103DA00002EB81014868A0608268E260211D8268A0
:103DB00051608160E16A01EB8101274A02EB8102D7
:103DC0006261E16A01EB8101234A52F82110491C2A
:103DD000E26A02EB8202204B43F822101F49E06A9C
:103DE0000968C96A884202D301201D490860184841
:103DF000006808B9012000E0002000289BD00CB129
:103E0000FFF708F91748056865B100BFFFF734FEF2
:103E100010B10120124908606D1E002DF6D100205E
:103E2000104908600E4800E009E0006838B101263A
:103E300030070D490860BFF34F8FBFF36F8FFFF757
:103E400003FB304670BD00008400002058000020B5
:103E5000F0030020600000206403002048000020E0
:103E60006C0000206800002004ED00E000404040AD
:103E7000404040404040414141414140404040403D
:103E800040404040404040404040404040050202E9
:103E900002020202020202020202020202202020A8
:103EA0002020202020202002020202020202909004
:103EB0009090909010101010101010101010101002
:103EC0001010101010101010020202020202888856
:103ED0008888888808080808080808080808080862
:103EE000080808080808080802020202400000004A
:103EF0006D3E00087B2274656D70223A252E316676
:103F00002C2268756D223A252E31662C22696E6648
:103F10007261726564223A25642C226C6564223ACF
:103F200025642C226D6F746F725F646972223A256A
:103F3000642C226D6F746F725F7370656564223AD2
:103F400025642C2262757A7A6572223A25642C22C5
:103F5000736572766F5F616E676C65223A25647D6A
:103F600000000000843F000800000020D400000092
:103F7000981B000858400008D40000205C4B00004B
:103F8000A81B000800000000000000000000000066
:103F90000000000000000000000000000000000021
:103FA000010000003C0000000100000014000000BF
:103FB000000000005A0000000000000000000000A7
:103FC00000000000000000000000000000000000F1
:103FD00000000000000000000000000000000000E1
:103FE00000000000000000000000000000000000D1
:103FF00000000000000000000000000000000000C1
:1040000000000000040000000000000000000000AC
:1040100000000000000000000000000000000000A0
:104020000000000000000000AAAAAAAA00000000E8
:10403000010203040102030406070809020406083A
:1040400000A24A0400000000000000000102030476
:0840500006070809000000004A
:04000005080000ED02
:00000001FF
